:10000000F81A002065120000795200002112000049
:1000100000000000000000000000000000000000E0
:100020000000000000000000000000006910000057
:100030000000000000000000011000001523000077
:10004000DD100000DD100000DD100000DD100000FC
:10005000DD100000DD100000DD100000DD100000EC
:10006000DD100000DD100000DD100000DD100000DC
:10007000DD100000DD100000DD100000DD100000CC
:10008000DD100000DD100000DD100000DD100000BC
:10009000DD100000DD100000DD100000DD100000AC
:1000A000DD100000DD100000DD100000DD1000009C
:1000B000DD100000DD100000DD100000DD1000008C
:1000C00002B4714649084900095C49008E4402BCEB
:1000D0007047C04603B47146490840004900095EB4
:1000E00049008E4403BC7047002934D0012300220C
:1000F00010B488422CD301242407A14204D28142A7
:1001000002D209011B01F8E7E400A14204D28142B6
:1001100002D249005B00F8E7884201D3401A1A4333
:100120004C08A04202D3001B5C0822438C08A0426A
:1001300002D3001B9C082243CC08A04202D3001B20
:10014000DC082243002803D01B0901D00909E3E79A
:10015000100010BC704701B5002000F05FF802BD30
:100160000029F8D003B5FFF7C1FF0EBC4243891A3E
:100170001847C046002941D010B404004C40A446A2
:1001800001230022002900D54942002800D5404221
:1001900088422CD301242407A14204D2814202D2F6
:1001A00009011B01F8E7E400A14204D2814202D216
:1001B00049005B00F8E7884201D3401A1A434C0813
:1001C000A04202D3001B5C0822438C08A04202D349
:1001D000001B9C082243CC08A04202D3001BDC0871
:1001E0002243002803D01B0901D00909E3E71000CE
:1001F0006446002C00D5404210BC704701B5002079
:1002000000F00CF802BDC0460029F7D003B5FFF797
:10021000B3FF0EBC4243891A1847C0467047C04618
:100220001C2101231B04984201D3000C10391B0A26
:10023000984201D3000A08391B09984201D30009EA
:10024000043902A2105C40187047C0460403020241
:10025000010101010000000000000000002B11D18D
:10026000002A0FD1002900D1002802D00021C94363
:10027000080007B4024802A14018029003BDC0461E
:100280009DFFFFFF03B4684601B5029800F090F8A7
:10029000019B9E4602B00CBC7047C046D0400B008C
:1002A000D1409C46203AD340184352426346934083
:1002B000184370479140030090409C46203A934079
:1002C000194352426346D3401943704710B5002981
:1002D00003D1FFF7A5FF203002E00800FFF7A0FFE1
:1002E00010BDC046024670B50A4392072AD11E4D82
:1002F000EE0104C808C9541B9443344017D0D0B24F
:10030000D9B2401A2106014310D190B299B2401AD5
:10031000210401430AD110021902000A090A401AF5
:100320002102014302D1100E190E401A70BD9A42EB
:10033000DFD010BA19BA884201D9012070BD00205F
:10034000C04370BD02780B7801300131002A09D01A
:100350009A4207D102780B7801300131002A01D08E
:100360009A42EFD0D01A70BD01010101F7B5040C1B
:100370000D0091B20F0061438C460600019383B2D9
:10038000100C5F43444358433B0C60441B18994294
:1003900002D9802149026418019955437143180C10
:1003A00004191B04BFB24919D819091903B0F0BDCB
:1003B000F0B506000F0015001C0085B08B4263D815
:1003C00001D1824260D821002800FFF77FFF390069
:1003D00000903000FFF77AFF009B21001B1A1A00E3
:1003E00028000393FFF766FF00900191B94245D8BA
:1003F00001D1B04242D8009B019C01200021039A08
:10040000F61AA741FFF756FF04000D00039B002BCF
:100410002BD0019B009ADB0750081843019B590819
:10042000039B9C46B9422CD801D1B04229D8320056
:100430003B00121A8B41012692185B410027B61827
:100440005F4101235B429C446346002BEAD13000AC
:100450003900039AFFF722FF039AA4197D41060091
:100460000F00FFF727FF241A8D410A9B002B01D0B4
:100470001E605F602000290005B0F0BD002400254B
:10048000C4E7B6197F41DCE700240025EDE7000052
:1004900030B5040085B0002816D10AAB0C48039390
:1004A00004F00CFF0B4A0C4D01000C4B280000928D
:1004B0001E2204F03FFE0A48039900F059F809484B
:1004C00004F038FE00F0C2FF200005B030BDC04689
:1004D000F15A00006D5B0000455B00001C5B0000F2
:1004E000756A0000746A000007B50068064A05389E
:1004F00043425841054B06490193064BC0B2009355
:100500001E23FFF7C5FF07BDF15A0000756A000002
:100510006D5B00001C5B000010B5044C044B9C425A
:1005200000D310BD08CC9847F8E7C0462C5800000F
:100530002C58000070B5064B1D68AC00E418002D67
:1005400000D170BD23689847013D043CF7E7C046E1
:100550002058000010B5024B1B68984710BDC046DC
:1005600098060020014B18607047C046980600208E
:1005700013B50B000021034C02000091200000F095
:100580007FF813BD5505000030B5002587B00390F6
:10059000049104000095064803A9059500F070F841
:1005A0000598049B984200DA255407B030BDC04638
:1005B0000B510000F0B503000268042400200A2655
:1005C000054D11786F5C274201D11A60F0BD704370
:1005D000303801324018F4E7F1590000F0B585B029
:1005E00001900393D3781500244A0F00D15C0322B5
:1005F0001140082402916F2B0AD004D82419582BDB
:1006000006D0063C04E0082210249343702BF8D156
:100610000A9E2200002339000198FFF71FFE1300F5
:100620008C46D2B2092B1AD83032D3B2013E337085
:100630000023BB4202D1019B9C4202D8039B9E42F5
:100640000AD82B789B0604D5082C10D1AB7823430D
:10065000AB70300005B0F0BD67460190D9E71300DC
:1006600002995733DBB20129E0D13732DDE7102C94
:10067000EFD1AB781C43AC70EBE7C046F1590000FA
:10068000F0B51C0000279BB0049005910892089BD0
:100690001878002801D1380028E3089B013307931C
:1006A000252807D00599049B9847002800DA1DE308
:1006B0000137E2E114AD18220021280004F0C2FA4B
:1006C000089B5B78252B14D1089AEB7202320792B3
:1006D00014AB5A7AD10700D47EE102CC03910029F1
:1006E00000DB7EE10421187A01431972039B5B420F
:1006F00076E1002201261500100094460392079B24
:100700001B782B2B00D191E000D988E0202B00D161
:1007100091E0232B00D190E0002A05D014AE327A6C
:10072000110040220A433272039A002A04D0202288
:1007300014A90E7A32430A72002D04D0102214A993
:100740000D7A2A430A72002804D0082214A9087AD4
:1007500002430A726246002A04D0042214A9087ACD
:1007600002430A72442014A90A7A1040442802D194
:10077000402082430A72079A14AD0D928022297A92
:1007800052420A432A722A2B5BD16A7A293B1343CD
:100790006B72079B01331978022608002E384242FB
:1007A000504114AD6A7A4000B24302436A722E2966
:1007B00009D15A1C0D925A782A2A52D1697A263ABE
:1007C0000A436A729B19197814AA6C2972D056D8F8
:1007D00068295DD06A2979D04C2900D180E05A1C63
:1007E0001978079214AA537AD172782900D9EEE0C9
:1007F0006D297CD8692900D9E9E0572900D991E011
:10080000412903D04539022900D9E0E0072314A982
:100810008A7A9A43033B13438B7201239FE02D2B6B
:100820000DD0302B00D077E7320000E03000079B7E
:100830000133079363E73500F9E70396F7E7B4461A
:10084000F5E70DA8FFF7B6FE0D9B079A9342A2D0DD
:1008500002212A7AE860C00F40008A4302432A72CC
:1008600099E70DA8FFF7A6FE2B7A28619A07104397
:10087000C00F4000B34303432B720D9BA3E77429C1
:1008800029D07A29ABD17821507A884348390DE0B4
:1008900058787821682806D1507A88437039014306
:1008A000517202339BE7507A884310210143517201
:1008B000013394E7587878216C2803D1507A884323
:1008C0005839ECE7507A88431821EFE77821507ABD
:1008D00088435039EAE77821507A88434039E5E780
:1008E0001089B4490840B44901431181E0E701206F
:1008F00005006E39C9B28D402900B04D29423DD165
:10090000242529425AD1014261D00721907A884397
:1009100004390143917278221340403B5A425341BB
:10092000DBB21CE001200D000600583DEDB2AE40E8
:100930003500E2263602354200D067E7A04E354248
:100940002AD1842189020D4241D00725917AA943F9
:100950000143917278210B40402B0BD0002314AA45
:10096000117A8807C00F034302205B0081431943BB
:100970001172ADE6137A03431372EFE70721957AFC
:100980008D4305392943917278210B40402BE5D1E5
:10099000137A18431072E1E70725967AAE43053DB6
:1009A0003543957278252B40402B02D1157A284388
:1009B00010726329D2D15A1E9341B1E70721907A70
:1009C000884304390143917278221340F3E70123ED
:1009D00014AA117A0B43CFE7197A7F290FD9DB6864
:1009E000039314AB51070CD504CC0692002A0CDA01
:1009F00002215A7A8A435A7201235B4204E001239E
:100A000075E69207F8D51B690693002514A98B7A21
:100A10004A7A5B0752065B0F120FCD600D61012B06
:100A200030D1D01E042804D8FFF74AFB0E45450EEE
:100A30000E002368D81714934860012A09D15BB2CD
:100A40001493DB174B6006E008CC1493DB174B6064
:100A500002E0022A14D0043414A90B7A03201D00EA
:100A60000540034245D0079B089A0599049804F075
:100A700076FB002800DA39E13F18079B089306E669
:100A80001BB2DDE7022B25D1D01E042804D8FFF7C6
:100A900017FB0D121219190008CC012A16D0149355
:100AA0004D609BB2022AD7D11493D5E708CC14939A
:100AB00000231593D0E7072307349C4303CC1490FD
:100AC0001591C9E708CC14930023C0E7DBB2149357
:100AD0004D60C1E7042B08D1073403339C432068E1
:100AE0006168083414901591B6E7032BB4D108CC93
:100AF000DAE7C87A7828C0D862282BD8252800D110
:100B0000D0E55828B9D11498159926230AAA9B181C
:100B1000009316AA0EABFFF761FD069B0600002BA3
:100B20000DDB262340200AAA9B1814AA117A9B1BCE
:100B3000814311720699994201D9CB1A1793002E5D
:100B40009BD026220AABD218931B0692002D42D0CE
:100B5000013340E0633815288FD8FFF7BBFA330024
:100B600069008EFF8EFF8EFF8EFF69008EFF8EFF65
:100B70008EFF8EFFA2007B007D008EFF8EFF160091
:100B80008EFF7B008EFF8EFF7B00069B149E002B4A
:100B90000CDB1900300004F029F9002E00D16CE7BD
:100BA00033180693069B00259B1B14E0300004F0CD
:100BB000BFF8F5E7FD87FFFF024000008204000058
:100BC000010800001123149A0EAE32700AAA9B1875
:100BD00006930025012314AA927A102110000840E0
:100BE0000B900A4278D0023317990A91CB1852061B
:100BF00001D5189A9B18039A002A00DC87E0D31AC3
:100C0000039314AB1B7A5A07D10F0891002A00DA1C
:100C10007DE05B0600D46BE0002D07D0280005992D
:100C2000049B9847002861DB089D0137302360E072
:100C30002B251A0702D4DB06DB0F5D01149A159BE6
:100C4000002B00DB5FE70021504299412D251490D5
:100C5000159158E7002556E7149814AD002835D0B3
:100C600026230AAA9B18009316AA0EAB0021FFF7B1
:100C7000B5FCEF236A8906001A40484B13436B8189
:100C80000025069BAB4200DB4BE7A84200D1F4E60F
:100C900026230AAA9B1826220AA952181B1A069272
:100CA00099E7149B072A00D9E7E61000FFF708FA36
:100CB0000C04060C08080C0C1F70DEE61F80DCE636
:100CC000FA171F605A60D8E61F60D6E6344B05005D
:100CD0000693344E05237EE71107C90F5B1883E79F
:100CE00005990998049B9847002805DA1BB0F0BDC8
:100CF00020230993039B0893089B1A00013A08924A
:100D0000002BEDDC039AD719FF1A089B0393002DE3
:100D100006D028000599049B98470028E6DB013798
:100D200014AB9B7ADA0601D41B0706D5302005994F
:100D3000049B98470028D9DB01370B9B002B07D079
:100D400014ABD87A0599049B98470028CEDB01376D
:100D50003D0006E030200599049B98470028C5DB3C
:100D600001350A9BDB195B1B002BF3DC3200069B71
:100D70000599049804F0F3F90028B7DB47193D0002
:100D8000039B5B19DB1B002B00DC76E6202005991A
:100D9000049B98470028A9DB0137F1E71078000091
:100DA0009D5B0000985B0000EFF3108172B61E237C
:100DB0000E4842689A431C3B134343600F200C4B80
:100DC0005A7D82435A759A695207FCD4DA68D20672
:100DD000FCD50122074B1A71074B084A1A620029F9
:100DE00002D162B6BFF36F8F002070470040004110
:100DF0000010004000080040001C004006010100F7
:100E00000FB430B5C3B046AC174820CC04F092F90B
:100E1000802123002A00490002A80194FFF7B4FBB7
:100E20000500124804F086F9114804F083F90821FE
:100E3000104804F039F904000F4804F07BF92A0047
:100E400002A9200004F047F905000C4804F072F9EB
:100E5000200004F039F90A4804F06CF9280043B086
:100E600030BC08BC04B018479E5B0000AE5B0000BD
:100E7000BE5B0000CE5B0000DD5B0000ED5B0000B0
:100E8000FD5B0000014910220A60704710ED00E090
:100E9000BFF34F8F30BF62B6BFF36F8F7047C0464E
:100EA00037B505000C1E19D08B680F4800934B68AE
:100EB0000A68452104F0C9F96369452100930B488C
:100EC0002369E26804F0C1F945210948E26904F0A8
:100ED000BCF945210748A26904F0B7F928002100B0
:100EE00001F0BAFB37BDC0460D5C0000415C00005C
:100EF000755C0000895C000043B2000605D41F2227
:100F00001A4001239340014A1360704700E100E05A
:100F100070B505000C00032910D9194E5C2332006E
:100F20001849194804F035F92100184804232A000B
:100F300004F02FF95C21300004F027F90322FF218F
:100F400040B20240D2009140A301C943934000281F
:100F50000ADBC0240E4A800880008018A4000259D1
:100F60000A401343035170BD0F2210400838094A4C
:100F7000800880008018C26911401943C161F2E7FE
:100F8000BC5C0000F25C00000D5D00002A5D00000A
:100F900000E100E000ED00E030BFFDE7FF22084B7C
:100FA00010B59343074A9360BFF34F8FBFF36F8F22
:100FB00001F0EEFB03F0C8F800F03CF901F02CFC66
:100FC0000000000000ED00E00A4A93681900883133
:100FD000086009498C3309681960802307495B055B
:100FE000486803434B6062B6BFF36F8F93688C33DE
:100FF000186870477C090020C059000000ED00E02F
:1010000014498A6814481044EFF3098CF0C0434631
:101010004C4655465E466746F8C072B60F4F104EB6
:101020004A698A603E600F4C1419206800232360CF
:10103000002800D162B6084C10191030F8C8984644
:10104000A146AA46B346BC462438F0C88CF30988AA
:10105000704700007C0900203000000004ED00E033
:10106000000000088800000004207146014202D000
:10107000EFF3098001D1EFF3088081690239097823
:101080000229FFD001B504F0EBF801BD10B5203AFC
:101090001360029B01245360039B07499360049BE8
:1010A000A143D36080235B04D36100239161026577
:1010B0008830036010BDC0464B510000064B98605D
:1010C000101C81F30988002162B6BFF36F8F0022E4
:1010D000002304F03AF8C0467C09002001B5EFF384
:1010E00005800549401AC0000449014409C99847D0
:1010F00009BC9E460249084710000000C456000083
:1011000005110000044B99685869884202D00349D0
:10111000034A0A60704700007C09002004ED00E0EB
:101120000000001070B5304B04005D6888B0EB051E
:10113000DB0D62B6BFF36F8F100EFF2807D1F338B7
:101140001040082811D14521284804F07EF8284C89
:10115000284922002848294B04F01BF8284804F0AD
:1011600018F82000254904F010F80126120701D5CF
:101170000C000026002CEAD0032B25D14521214864
:1011800004F063F8A369023B1A881F4B9A4226D1E8
:1011900045211E48226804F058F8256820222100C5
:1011A000684603F007FD079B002E1AD0DA0502D12E
:1011B000174A134307930F2D00D9002569462800CD
:1011C000FFF76EFE08B070BDF8214900114A0D42CC
:1011D00000D0114A45211148103B04F036F8002593
:1011E000DCE75B0A5B02E5E700ED00E0985D0000EC
:1011F000C85D0000025E00000D5D00003F040000BD
:10120000155E0000535E000002DF00006F5E00000C
:10121000FF0100006A5D00007F5D0000905E00003D
:10122000EFF30880EFF3098101B57246FFF77AFF0B
:1012300001BDC046F0B5C02400220326FF25A4004E
:1012400010002F003040C0008740054993089B00E4
:101250005B1819590132B9431951202AF0D1F0BD58
:1012600000E100E072B607480749401880F309889A
:10127000EFF314800221084380F31488BFF36F8FCB
:10128000FFF78CFEF80D00200008000010B50A4B97
:101290009B6883420DD1EFF30583002B09D0802298
:1012A000064B520559680A435A605A6A04490A4073
:1012B0005A6202F0D1FD10BD7C09002000ED00E073
:1012C000FF7FFFFF0B4A0C4B10B59B1A8022920147
:1012D00093420DD2094C0A4980232200094803F0A9
:1012E00058FF094803F055FF8021200003F04DFF0F
:1012F000002010BDF81A002000800020A85E000029
:10130000D85E00000D5D00001E5F0000014B1860FC
:101310007047C0469C06002010B5074C074923685B
:10132000C2180748091A8A4202D21818226010BD52
:1013300001204042FBE7C046C80800200080002092
:10134000F81A002010B500280CD1D323084C094905
:10135000094822005B0003F01CFFD3212000490054
:1013600003F013FF01225242D31701F021FC10BDFC
:10137000A85E0000A65F00000D5D000010B500280B
:101380000CD1E123074C0849084822005B0003F018
:1013900000FFE1212000490003F0F7FE01F0E0FC2E
:1013A00010BDC046A85E0000A65F00000D5D0000F5
:1013B00070B50500074C084EB44202D3002420004B
:1013C00070BD28002168FEF78DFF0028F7D01C347F
:1013D000F2E7C046F05700000C580000F7B5114B7B
:1013E0000700019300230D001400019A0E4E1370A4
:1013F0000E4B9E420ED3BB68002B01D020009847B5
:1014000002210B4BAA682000197090470123019A12
:101410001370F7BD3368002B02D0210028009847D5
:101420000836E5E7F10900202058000020580000A8
:10143000B406002010B50448FFF728FF02F006FDAF
:10144000FFF724FF10BDC046D806002010B50E4B94
:101450001B78002B0ED05A1E012A0FD90B49052BE1
:1014600002D80B4A9B0099580A4803F063FE0222F7
:10147000094B01E00522094B1A7004E00222074BD8
:101480001A70FFF7D7FF10BDB4060020E15F00001F
:101490003C580000EB5F0000F2090020F109002039
:1014A00070B50500094C002901D014310C00084E1C
:1014B000B44202D30024200070BD28002168FEF74A
:1014C00011FF0028F7D01434F2E7C0460C58000092
:1014D00020580000F0B506008FB0002808D1022285
:1014E0009B4B1A7001235B42089308980FB0F0BD24
:1014F00031689848FFF784FC9748FFF781FC002388
:10150000964A1370964A1370964A1370736809933B
:10151000002B01D09847099000231F0008933468DE
:1015200039002000FFF7BCFF071E0FD1884B1A7847
:10153000002A00D0F1E0089A002A00D1F1E001224F
:101540001A7031688848FFF75BFCF0E0874B200099
:101550009B6879689847002800D1D9E03A698448A7
:101560001368013313607968FFF74AFC01237D4C4F
:10157000237000F0F7FF08227E4B1860FB681A43C7
:101580000492012252427C490392099A0C910292E0
:1015900001204042C1178022784D06900791784B78
:1015A00028000C9901970096D20001F001FA7968A1
:1015B000002902D0280001F087F9694B1B78043B11
:1015C000012B09D96D4D280003F0C9FF01225242B9
:1015D000D317280002F012FD03232370F368002BB9
:1015E00001D009989847674C06E06368002B02D049
:1015F0003800099998470834634B9C42F5D300F0B2
:10160000B1FF002200215B4B0B921B68C31A5F489D
:101610000A930A9C0B9D0019694191424DD15B4A86
:101620005B499818FEF760FD5A4B18603B691A69D0
:10163000824200D2186105224A4B57491A70484B22
:101640001B78022B04D0934202D00A78002A39D0AA
:10165000002301250B704948FFF718FE7B684F4CAB
:101660000C934F4B0D930D9B9C4232D3FA21494B67
:1016700089001C682000FEF737FDFA210D908900D3
:101680002000FEF76DFD00914649A8000D9B4158D2
:101690000C9A4548FFF7B4FB2F48FFF7B1FB3B69B5
:1016A000022D30D12D4A1278002A02D00121284A79
:1016B00011705A6801325A602AE00023344AFEF75A
:1016C000CDFDB1E70121033BDBB299425241550008
:1016D000C1E70C996068FEF705FE00280CD1396857
:1016E0002068FEF7FFFD002806D1237A002B05D0E5
:1016F000012BBBD1AB1E02E00C34B4E76B1E5A1EAB
:101700009341DDB2B2E7002D1BD1DA680132DA6015
:101710000F4B1B78022B00D001E7089B002B00D059
:101720000FE722483168FFF76BFB00230893042280
:101730000C4B1A703369002B00D1D6E609989847F4
:10174000D3E69A6801329A60089B01330893DFE779
:10175000F20900201E60000034600000F009002043
:10176000F1090020B4060020BA60000060580000B3
:1017700079600000D0080020F8090020D806002079
:10178000DD13000020580000205800007FBB00003F
:1017900080BB0000CC080020F3090020F0570000B7
:1017A000F05700005458000085600000A26000005F
:1017B000F7B51E4B002700931B781D4C0190022BA0
:1017C00022D13800FEBD0B691E600B695E600B699B
:1017D0009E600B69DE600B691E612068FFF760FE8A
:1017E000011EF0D12000FFF775FE2B6801332B603E
:1017F000431E9841AB681818A8600120009B3F1851
:101800001B78022BDDD01C340A4B9C42D9D20A4BE8
:1018100021005B680198A5699847002802D0002143
:101820000E00DAE76B6801336B60E7E7F20900202E
:10183000F05700000C58000060580000F8B5012671
:101840001E4C1F4B9C420DD31E4C1F4DAC4214D35B
:10185000002E02D101221D4B1A700126194CAC42F8
:1018600019D3F8BDA3691D68002D04D1184821685B
:1018700003F060FC2E001C34E3E727683800FFF714
:1018800097FD051E05D13A001248616803F052FC2D
:101890002E001434D9E72269D16893685B18516827
:1018A00012685B18934206D00B486268216803F007
:1018B00041FC064B1E701434D1E7C046F0570000BF
:1018C0000C5800000C58000020580000F2090020BD
:1018D000D0600000F56000003761000010B5024BD9
:1018E0001B68984710BDC04660580000F0B593B023
:1018F00003F0CEFC5F48FFF783FA5F4B0993099A28
:101900005E4B9A4212D35E48FFF77AFA5D4B5E480F
:101910001B785E4C002B00D1A8E0FFF771FA5C4900
:101920002000FFF76DFA002013B0F0BD00252C0059
:10193000099B0A951B680B950F930C950D9521003B
:101940000F98FFF7ADFD041E56D10A9A0B9902239A
:1019500006000E908A421FD00D9B4E48511A5843E4
:10196000FEF708FCFA2189000600FEF703FC4A4F47
:101970000E904743BF190A213800FEF7FBFB0C9B72
:101980000C9ADB179B1A0A2252424243D2190600D4
:10199000DB0F042A00DD0136FA21404A9B002800B3
:1019A000890010921193FEF7DBFB0691FA212800C3
:1019B0008900FEF799FB0A9B394F04930B9B109902
:1019C00003930C9B059002930D9B119801930F9B21
:1019D00041580093380033000E9AFFF711FA099B23
:1019E00021001868FFF75CFD041E1ED12D48FFF78B
:1019F00007FA099B1C3381E70A9B01330A93236989
:101A00001A695968AD181A68914203D10B9B0133CA
:101A10000B9394E7DB689A4203D10D9B01330D933E
:101A20008DE70C9B01330C9389E7236902251A6823
:101A30005968914203D0DD68AD1A6A1E9541FA21BA
:101A40001F6989003800FEF78BFB0191FA213800ED
:101A50008900FEF749FB144E10990090AD0030004C
:101A6000636822684959FFF7CBF9B8E7FFF7C8F96F
:101A70000E4955E74C610000F05700000C5800007B
:101A800005620000F20900203460000032620000AC
:101A90002B620000A086010018FCFFFF54580000D4
:101AA00075610000746A0000D9610000486200009E
:101AB000024A5368002BFCD17047C0460028004002
:101AC000F8B500250F4A066953699CB2DBB2546130
:101AD000AB4201D1240A08350127002C00D1F8BD02
:101AE0003C420CD0380073191A7E53069B0FDB0062
:101AF000D206F318D20E904059681A6890476408CD
:101B00000135EAE700280040802310B50C4ADB00CD
:101B1000516903200B43536140220A4B1A60002293
:101B20001100FFF7F5F90320FFF7E6F90223064A53
:101B300011780B431370FFF7BBFF002010BDC046A8
:101B400000080040881C00400028004010B5094BE8
:101B500004009B181B7E00207F2B09D95A06920F88
:101B6000944205D1D806C00E401A43425841C0B233
:101B700010BDC046D4080020F0B585B003933D4B9E
:101B8000019242019B185D5CFF2D00D16FE0EFF3E5
:101B9000108372B60222384C029323789343237049
:101BA000364B5B191B7E7F2B16D95A06920F824249
:101BB00003D1DB06DB0E8B420ED0022322781343C7
:101BC0002370FFF775FF029B002B02D162B6BFF3B3
:101BD0006F8F1020404240E0284B0A9EC700FE5005
:101BE0000B9EDF197E601F2603270E4080213840A0
:101BF000494231430722400108435B1918760F2000
:101C00002A40920090401C4BE9108900C918CB690A
:101C10008343019804280CD8FEF752FA03070921E0
:101C2000230001209040034303E00220FAE797409D
:101C30003B430398002802D0082090400343CB6127
:101C40000223227813432370FFF732FF0123AB40B6
:101C50006361029B002B06D0002005B0F0BD04207C
:101C6000E0E70520DEE762B6BFF36F8FF4E786207A
:101C7000B0E7C0469A62000000280040D408002067
:101C8000F7B51F4B42019B185C5C0E000190FF2CC6
:101C900033D0EFF3108772B602221A4D2B7893439C
:101CA0002B70FFF705FF220031000198FFF74EFF70
:101CB000002814D07F200122134BA2401B19197E4B
:101CC000014078381976E3100440A4000830A040A1
:101CD0009B005B19D9698143D961EA606A6102237B
:101CE0002A7813432B70FFF7E3FE002F01D000206A
:101CF000FEBD62B6BFF36F8FF9E786204042F7E77B
:101D00009A62000000280040D40800200B4B4201DA
:101D10009B1810B55C5CFF2C0BD02200FFF716FF60
:101D2000002809D00123A3400020054A5361136114
:101D300010BD86204042FBE71020FBE79A620000BE
:101D4000002800400B4B42019B1810B55C5CFF2C37
:101D50000BD02200FFF7FAFE002809D00123A34090
:101D60000020054AD360536110BD86204042FBE746
:101D70001020FBE79A62000000280040F7B50F4BE7
:101D800001905D69002318000D4E0E4FF25C7F2A12
:101D900010D9FA18127E01995406A40F8C4209D169
:101DA0002C000121DC400C4204D00C00D206D20EE3
:101DB000944020430133102BE8D1FEBD00280040A1
:101DC000EC080020D408002010B5084803F0ACFB54
:101DD000002808D0064C2000FFF798FA2000FEF7F4
:101DE000C1FB002010BD13204042FBE77C560000E1
:101DF000F51D000070B50400074D0A2804D1AB683A
:101E00000D2128005B689847AB6828005B68E1B249
:101E10009847200070BDC0467C56000010B503698D
:101E200000290DD1234C24492A232200234803F002
:101E3000B0F9234803F0ADF92A21200003F0A5F9F9
:101E4000486800280BD11B4C1E492B2322001B483D
:101E500003F09FF91C4803F09CF92B21EDE7D868AB
:101E6000002821D088421BD108681C69D860A14293
:101E700000D1186100200860824206D0DA680A604A
:101E80001A69D960002A00D11961002010E081424E
:101E900006D10868206018698142EBD11C61E9E72E
:101EA000040000680028F2D1002AE7D11620404241
:101EB00010BDC046FA620000366300000D5D0000F0
:101EC0003F6300004E63000060630000F0B585B022
:101ED0001700029380234668026975680C00691830
:101EE0004031097850603548C9B23840DB03984228
:101EF0001FD080239B039F4202D01620404216E051
:101F0000012399430391307A2100FFF71BFF03005F
:101F10001022103393430AD12100307AFFF7B0FE2C
:101F2000002804D16B462D191B7B40352B7005B062
:101F3000F0BD880740D528680123E04018423BD116
:101F40001800084361086918039030310F201C42C3
:101F500028D00B78184008708021029BC9048B425E
:101F600024D0C021C9048B4224D0802189048B4213
:101F7000C3D180230121DB039F4200D10331936849
:101F80000120E3400340307A01920D4A00920A009A
:101F90002100FFF7F1FD0028C9D12100307AFFF7B9
:101FA000B5FEBDE70B7883431800D4E780230021FA
:101FB000DB03E1E70221E2E786209FE7FFFFFFFE68
:101FC000C51F000070B54E68C9680500002902D021
:101FD0000C68002900D170BD8B681A002A402B4282
:101FE00012D04B68002B0DD10A4C0B4922000B4834
:101FF0004D3303F0CEF80A4803F0CBF84D21200012
:1020000003F0C3F830009847231E00D02368210056
:102010001C00DEE7FA620000776300000D5D00003F
:1020200060630000F0B504001F27890085B04518E3
:10203000AC4202D1002005B0F0BD0F2123681A0C7C
:102040000A40022A0AD9114C114912481F232200C2
:1020500003F09FF81F21200003F097F83F200E495E
:10206000920051581E011A0D3A401840760F012E69
:1020700004D11B0F1B04034340201843039001A805
:1020800001910292043403F0AAF8D1E7AD63000095
:10209000DF6300000D5D0000B45800004021F0B582
:1020A0000369456885B0009001932B8B2E4A20333D
:1020B0009B002C6899502A696969136820000B43BA
:1020C0001360BF23237503F06FF9AA68274B200024
:1020D0001343236003F068F90021286A03AA03F080
:1020E00050F900283BDB039B002219791868FFF7A1
:1020F00099FF002833DB019A1D4B20005360013B00
:10210000FF3B636003F050F969681A480B0B0A053E
:102110000021801859410023174AFEF79FF8012635
:102120007642F71702000B00B6185F41002F18D156
:1021300012498E4215D8524292B22000A28103F079
:1021400033F96B68019A00981360EB699847022392
:10215000226820001343236003F026F9380005B0FD
:10216000F0BD22204042FAE7001C0040040000605D
:102170000001030000366E01006CDC02FEFF00006F
:10218000F0B5036985B0019343680D001C68200019
:1021900003F00AF90222236820009343236003F02E
:1021A00003F9EA79002A0DD1019BDA71216866688A
:1021B000B304DB0F02932B79012B06D0022B07D03F
:1021C000002B03D08620404259E002931A0001E020
:1021D00002920122019803716B79012B51D00120E9
:1021E000032BEFD1039001984371AF79042FE9D805
:1021F000264B12061940114387712000216003F01D
:10220000D3F8039B07219A013B000B4005330B4099
:102210001343029A2000520313431D4A32401343D2
:10222000360C9BB236041E43666003F0BDF82B6883
:10223000184A190B18050023801859410023164A23
:10224000FEF70CF801267642F71702000B00B618CD
:102250005F41002F17D111498E4214D8524292B2D9
:102260002000A28103F0A0F82B68019A20001360DF
:10227000022322681343236003F096F8380005B068
:10228000F0BD0020AEE722209DE7C046FFFFFFF033
:10229000B8DFFFFF00366E01006CDC02FEFF0000BD
:1022A00030B50A4B0A4A986819680A4D9C68C903F8
:1022B00001D4A04204D211682868091811601B6873
:1022C0002B681068C018001B30BDC04610E000E04D
:1022D00068090020740900200020094A136A1B02C3
:1022E0001B0A1362074B084A1A60084B1860084B18
:1022F0005A600722986019680A431A607047C046FE
:1023000000ED00E074090020BF1200006809002001
:1023100010E000E070B5FFF7C3FF0C4B0C4A1868E3
:1023200011680C4C401810609621002225681A6034
:102330004901401BFDF7D8FE96235B0143435B191F
:10234000236002F071F8FEF7DDFE70BD6809002021
:10235000700900206C090020F0B5494E494F85B046
:1023600000292DD0431C08D10122336893433360E8
:10237000FF231B063B6005B0F0BD3B6801930024C2
:10238000012804DD404B1C00984200DC441EEFF3A2
:10239000108372B63D4D0393280000F0C3FB002864
:1023A00014D13B4C942322003A493B4802F0F1FE01
:1023B00029003A4802F0EDFE9421200002F0E5FEEB
:1023C0003B680193431CDAD12F48DFE7280000F077
:1023D000C7FBFFF765FF0022B3680293304B1D680F
:1023E000304B45191A60304B1B680093EB1A93422F
:1023F00039DB9622520154432C496018C018110051
:10240000FDF772FE962252015043009B5B1B181889
:102410008023DB00984229D9254B984226D80023F7
:1024200038600138B1687060B360029B02985B1A33
:102430005A19884202D2019A9B185A19134D184B07
:1024400028001A6000F07EFB002811D1104CC32335
:1024500022001849104802F09CFE2900164802F09C
:1024600098FEC321A9E78020C000D8E71800D6E76E
:10247000039B002B00D07EE762B6BFF36F8F7AE735
:1024800010E000E074090020A60D0000780900208B
:10249000E16400000E6500000D5D00002365000092
:1024A00070090020680900206C090020BF1200009C
:1024B00080E8FF003B6500005265000070B5EFF357
:1024C000108672B61E4D280000F02CFB00280ED19D
:1024D0001C4C942322001C491C4802F05AFE29007F
:1024E0001B4802F056FE9421200002F04EFE280008
:1024F00000F036FBFFF7D4FE164A174B14681B6832
:10250000E41A2418280000F01DFB00280CD10D4C03
:10251000C323220011490D4802F03BFE2900104858
:1025200002F037FEC321DFE7002E02D162B6BFF30F
:102530006F8F962120004901FDF7D6FD70BDC04682
:1025400078090020E16400000E6500000D5D0000C8
:1025500023650000700900206C0900203B65000025
:102560005265000070B5EFF3108672B61A4C200069
:1025700000F0D8FA00280ED1184D94232A001849EB
:10258000184802F006FE2100174802F002FE9421CE
:10259000280002F0FAFD200000F0E2FAFFF780FECA
:1025A000124B1D684519200000F0CCFA00280CD110
:1025B0000A4DC3232A000E490A4802F0EAFD210011
:1025C0000C4802F0E6FDC321E2E7002E02D162B61C
:1025D000BFF36F8F280070BD78090020E164000010
:1025E0000E6500000D5D00002365000070090020ED
:1025F0003B6500005265000010B50B4B0B4A93423F
:102600000FD90B4C0B49172322000B4802F0C1FDD8
:102610000A4802F0BEFD1721200002F0B6FD183373
:10262000EDE79342FBD310BD1C560000C4560000DA
:10263000676500008A6500000D5D0000A26500006E
:1026400010B504004521034802F0FFFD200002F010
:1026500078FFC046C1650000F7B504000D00EFF338
:10266000108772B601F0F2FB204B0600042C02D852
:102670001F4BA200D3580022452100921D48220082
:1026800002F0E3FD002D06D0EB69DB0503D0452108
:10269000194802F0DAFD002E07D0300002F05DFF8D
:1026A000031E02D00278002A00D1144B45211448A1
:1026B000320002F0CAFD29002000FFF7C1FF002D03
:1026C00008D0EB69DB0505D0002F02D162B6BFF35D
:1026D0006F8FF7BD012CF7D0002F02D162B6BFF388
:1026E0006F8F3000FEF7D2FDF3E7C046D5650000DE
:1026F000C4590000EB65000018660000E3650000A7
:102700003E660000F7B50127124E830001309C5948
:1027100083000193019BF358A34200D8F7BD65687D
:102720002368002D13D0002B0BD0280098470028D9
:1027300007D0C2178018EB685040FF2800DDFF204B
:102740001870EA6853783B4353700834E2E79847BF
:10275000FBE7C046D859000010B501240A4B0320FE
:102760001C70FFF7CFFF01F065FF02F0BEFC0420F4
:10277000FFF7C8FF00F064F9FFF7B8F8034A137BCE
:10278000A343137310BDC046F4090020F8070020CE
:1027900010B5034A03480021121A02F0D6FE10BDFC
:1027A000F8090020D806002070B5902604004643A2
:1027B0000102134886B0091812481425059001201B
:1027C00004900E3003900020802265430E4B02904F
:1027D00001900E48F6182D180D4B30000095520050
:1027E00000F082F80422737B2C74934373730134DA
:1027F000084BE402E418EE606C6006B070BDC046A1
:10280000F8150020A5660000680700207C0900205C
:10281000712B0000F80D0020F0B50020ABB0FFF7E1
:1028200071FF214B83F308882049214B0A6A002558
:102830001A40C0231B0413430B6202F023FDFEF772
:1028400021FB02221B4E06ABFF329A81B360279513
:10285000FFF7D2FE0120FFF755FF0220FFF752FFDE
:1028600001F06AF9144C154B746180220593012321
:10287000134E14490493D2003300200003950295AF
:102880000195009500F030F804220700637B2000DA
:102890009343637300F0FAFB2800FFF785FF3200D3
:1028A00039002000FEF70AFCF815002000ED00E0DA
:1028B000FFFF00FF7C090020F8070020AA66000047
:1028C00059270000F816002010B5041E01D1054B51
:1028D0009C6820001F22603002F058FA00207F34EC
:1028E000207010BD7C090020F0B585B00D9D04005E
:1028F0000F9F0F2D35D12748834236D12000583005
:10290000A065E0650E9800262073042007326073EE
:1029100003308243A5738D180C9AA660E673A661F6
:10292000E66102920B9A200001920A9A00922A0014
:10293000FEF7ACFB200066656030B74227D01F224F
:10294000390002F023FA23007F331E70124B9B687C
:10295000002B01D00833DB6F28000834E36705B093
:10296000F0BD280010301E28C8D90C4C0C4922009C
:102970000C480D4B02F00DFC102329000B480E22D1
:102980005B4202F006FC2000074902F0FEFB0770E4
:10299000DCE7C046712B00007C090020B266000015
:1029A000D56600000D5D00001A02000055670000AA
:1029B00070B586B00400109E119DEFF305800028CD
:1029C0000FD0A323194C1A4922001A489B0002F089
:1029D000E0FB194802F0DDFBA3212000890002F092
:1029E000D4FB05900E9804900D9803900C980290DB
:1029F0000B9801900A9800902000FFF775FF2B00BC
:102A0000721C01D1013305D02B00334305D12000C6
:102A100000F0CAFB200006B070BD200032002B0081
:102A20000649183001F0F4FBF4E7C046B266000036
:102A3000866700000D5D000098670000A755000044
:102A400070B52F4C86B026002E4DAC4223D92E4CAB
:102A50002E4922002E482F4B02F09BFB2E4802F0FD
:102A600098FB2C49200002F090FBA36A0593236A8F
:102A70000493E3690393A369029363690193236950
:102A80000093E368A26861682068FFF72DFF236860
:102A90005C652C34D8E7AC42E7D300F0D7FB3400B8
:102AA000AC4226D9184C1949220019481B4B02F098
:102AB00070FB194802F06DFB1849D3E7636A5A1C92
:102AC0000FD0D843C01718400A220023C117FDF7C2
:102AD0004DFC26680B000200014304D1300000F0D9
:102AE00063FB2C34DCE730000D49183001F090FB1B
:102AF000F7E7AC42E2D300F019FC06B070BDC04667
:102B0000C4570000C4570000B2660000BD67000053
:102B10000D5D0000F3020000A2650000120300003A
:102B2000A755000003680120002B07D003221340A3
:102B3000034A127C9B1A5A1E9341D8B27047C04672
:102B40007C090020054A0300117C92680A43016851
:102B50000020914201D11860013070477C090020AB
:102B6000024B1A7C9B681343036070477C0900206A
:102B700010B50B4B9B689B7B7F2B0AD9094C0A49EC
:102B80000A482923220002F004FB2921200002F038
:102B9000FCFAEFF3108372B6FEF77AF9F9E7C04654
:102BA0007C090020EA6700000B6800000D5D000052
:102BB000F0B585B0040002920393EFF30583002B78
:102BC0000DD05C4C5C49652322005C4802F0E1FAC0
:102BD0005B4802F0DEFA6521200002F0D6FAEFF33E
:102BE000108772B6574D2800FFF79CFF00280CD1C4
:102BF000554C942322005549504802F0CAFA290046
:102C0000534802F0C6FA9421E6E72800FFF7A8FF30
:102C1000E368504A002B14D0A068916888422AD0FB
:102C2000029B039A134331D12800FFF78BFF002842
:102C300014D0002F02D162B6BFF36F8F1020404234
:102C40001EE09168897B49B20133E36093682800F4
:102C50002161A360FFF776FF00280ED13A4CC32311
:102C600022003D49354802F094FA29003B4802F021
:102C700090FAC321B0E72169E6E7002F02D00020D7
:102C800005B0F0BD62B6BFF36F8FF8E70E23897B06
:102C9000C35649B2994200DD19000A007F3201DAB9
:102CA0007F21494200268B4202DD02F05CFC0600D7
:102CB000029B22000093039B39002800019300F03F
:102CC000F7FC0028DBD0EFF3108772B62800FFF77F
:102CD00029FF002800D18BE72800FFF741FFA068FB
:102CE000002819D0236821699C420BD0002B09D001
:102CF0009B7B5BB2994200DD19000B007F3301DA48
:102D00007F21494202F02FFC002805D0390028001D
:102D100000F002FA0B2092E7002EF7D12800FFF70F
:102D200011FF00289AD0002FF4D162B6BFF36F8F45
:102D3000F0E7C04633680000866700000D5D0000C4
:102D4000556800009C090020E16400000E65000049
:102D5000236500007C0900203B65000052650000EF
:102D6000F8B50400EFF30587002F0DD03A4C3B492E
:102D7000CD2322003A4802F00CFA3A4802F009FA50
:102D8000CD21200002F001FA8368002B5ED0364A84
:102D9000926893425DD1C368002B08D12E4C334911
:102DA00022002F48E53302F0F4F9E521E9E7012B91
:102DB00003D0013BC3600020F8BDEFF3108672B66C
:102DC0002B4D2800FFF7AEFE00280CD1294C942390
:102DD00022002949224802F0DCF92900274802F0A4
:102DE000D8F99421CDE72800FFF7BAFE2169A06841
:102DF00002F0B9FB200000F04DFEA06000280CD0CE
:102E00000E23C356236103008C331F6000F03EF98C
:102E10003100280000F080F9CDE7E0602800FFF7DE
:102E200091FE00280CD1134CC323220014490C48F6
:102E300002F0AFF92900134802F0ABF9C321A0E773
:102E4000002EB8D162B6BFF36F8FB4E716204042B0
:102E5000B2E70120FBE7C046336800008667000048
:102E60000D5D0000556800007C0900207A680000B4
:102E70009C090020E16400000E650000236500004D
:102E80003B65000052650000C289030000207F2AD4
:102E900011D80A4A106800280DD00E21084A595648
:102EA00012680020914206DB5A7BD20603D1054806
:102EB000181A431E9841012318407047A8090020A2
:102EC000A40900206807002010B500280ED0114B7F
:102ED00098420BD3104A904208D2C01A0F4B0321DC
:102EE0001A004243CA410E498A420CD9C8230D4CEC
:102EF0000D490E482200FF3302F04BF9C821200093
:102F0000FF3102F042F90121C0104343084AD15475
:102F100010BDC04688080020A0080020ABAAAAAABD
:102F2000AAAAAA0A91680000B36800000D5D00001B
:102F3000F509002070B518240C4B05001E7C0C4BC5
:102F40007443E418200001F021FA0022094B280004
:102F50009A55FFF799FF002807D0074B20001A6801
:102F60000649013AD31701F053F970BD7C090020DE
:102F700088080020F5090020A8090020C92E0000BB
:102F800070B5164D164BAC699C4201D0002C00D197
:102F9000EC68AB68002818D1002B0DD1114C1249F8
:102FA000220012488A3302F0F4F8114802F0F1F8D6
:102FB0008A21200002F0E9F85A7BD20605D1A269E5
:102FC000002A02D1DA897F2A05D89C4202D020004B
:102FD000FFF7B0FF23006B6170BDC0467C09002085
:102FE00094090020916800004C6A00000D5D00000B
:102FF000736A00000D2370B5C356417B002B34DB90
:10300000CB0632D18369002B2FD1802252420A4352
:103010004273184A90420AD1174C184918482200A6
:10302000BC3302F0B6F8BC21200002F0AEF8154A1D
:10303000154C9169A14200D00B00D169002B04D13D
:10304000046041600860D0610CE00E250E264557F3
:103050009E57B5420AD0AE4208DD5A68036042600E
:10306000106058600020FFF78BFF70BD8B42E7D0E7
:103070001B68E3E76807002091680000766A00009B
:103080000D5D00007C0900209409002070B505004A
:10309000EFF3108672B6194C2000FFF743FD0028AD
:1030A0000ED1174D94232A001649174802F071F8E3
:1030B0002100164802F06DF89421280002F065F80E
:1030C0002000FFF74DFD2800FFF794FF2000FFF7D9
:1030D00039FD00280CD10A4DC3232A000C490A48A7
:1030E00002F057F821000B4802F053F8C321E4E73F
:1030F000002E02D162B6BFF36F8F70BDAC09002005
:10310000E16400000E6500000D5D00002365000015
:103110003B6500005265000070B5040000291FD116
:10312000EFF30585002D2CD11A4B5A699B689A4202
:1031300027D0FFF707FD00280ED1174DE2232A0004
:103140001649174802F025F82100164802F021F828
:10315000E221280002F019F82800FDF735FF70BDC4
:10316000FFF7F0FC0028FAD10B4DC3232A000B49CE
:103170000B4802F00EF821000A4802F00AF8C321B9
:10318000E7E7FFF7DFFC0028EED062B6BFF36F8FF2
:10319000E5E7C0467C090020E16400003B650000D3
:1031A0000D5D00005265000070B50500EFF310865C
:1031B00072B61F4C2000FFF7B5FC00280ED11D4D44
:1031C00094232A001C491D4801F0E3FF21001C48FC
:1031D00001F0DFFF9421280001F0D7FF2000FFF766
:1031E000BFFC04226B7B134217D12000FFF7AAFC1F
:1031F00000280CD10F4DC3232A0012490F4801F0BB
:10320000C8FF2100104801F0C4FFC321E3E7002EEE
:1032100002D162B6BFF36F8F70BD934328006B730A
:10322000FFF7E8FE31002000FFF776FFF4E7C04625
:10323000AC090020E16400000E6500000D5D000097
:10324000236500003B6500005265000070B5EFF398
:10325000108572B6294C2000FFF764FC00280DD1C0
:10326000274D94232A002749274801F092FF210087
:10327000264801F08EFF9421280012E02000FFF77D
:103280006FFCEFF30583002B0DD0214C2149FD236A
:1032900022001D4801F07DFF1F4801F07AFFFD214B
:1032A000200001F072FF1D4B9A68D37B012B0BD1DC
:1032B000174C1B4922001448FD3301F06AFF1648E1
:1032C00001F067FFFE21EBE7013BD3732000FFF71E
:1032D00039FC00280CD10A4DC3232A0011490A48A1
:1032E00001F057FF2100104801F053FFC321C3E74D
:1032F000002D02D162B6BFF36F8F70BDAC09002004
:10330000E16400000E6500000D5D00002365000013
:10331000976A000086670000736A00007C0900203D
:10332000C26A00003B6500005265000070B5EFF313
:10333000108572B62C4C2000FFF7F4FB00280DD14D
:103340002A4D94232A002A492A4801F022FF21000D
:10335000294801F01EFF9421280013E02000FFF708
:10336000FFFB264B9A68D37B002B0DD1244C2549BB
:1033700022002048244B01F00CFF244801F009FFF3
:103380002149200001F001FFEFF3058000280DD056
:10339000FB231B4C1E49220016489B0001F0F9FE3E
:1033A0001A4801F0F6FEFB218900EAE70133D373E6
:1033B000FFF7E6FD2000FFF7C5FB00280CD10B4D01
:1033C000C3232A0013490B4801F0E3FE21001248F1
:1033D00001F0DFFEC321BFE7002D02D162B6BFF3CB
:1033E0006F8F02F0D9F870BDAC090020E1640000D5
:1033F0000E6500000D5D0000236500007C090020C3
:1034000091680000F36A0000EB030000736A00009B
:10341000866700003B650000526500000B4B10B54D
:1034200099420AD10A4C0B490B4822000B4B01F080
:10343000B0FE2000094901F0A8FE0B684A6813603D
:103440005A6000230B604B6010BDC0466807002027
:1034500091680000766A00000D5D00007B040000AA
:103460000D2270B582560400437B214D002A06DAF6
:103470007F221340010043732800FFF7CFFF802312
:10348000627B5B42134363731A4B9C420AD11A4C12
:103490001A491B48BC23220001F07BFEBC212000FE
:1034A00001F073FE174A9369AB4200D10023D16942
:1034B000002B04D1256061600C60D4610CE00E200B
:1034C0000E2620569E57B0420DD086420BDD59681D
:1034D000236061600C605C609068001B434258414F
:1034E000FFF74EFD70BD9942E4D01B68E0E7C0468F
:1034F000940900206807002091680000766A0000A7
:103500000D5D00007C09002070B5EFF3108672B6E7
:10351000254C2000FFF706FB00280ED1234D9423F5
:103520002A002349234801F034FE2100224801F0FB
:1035300030FE9421280001F028FE2000FFF710FB48
:103540001E4A1F4B95681868A84213D1FFF7F2FC7A
:103550002000FFF7F7FA002820D1144DC3232A00DA
:103560001849144801F015FE2100174801F011FE1A
:10357000C321DFE700211960127C144B9B5C8B4256
:10358000E6D02800FFF780FC0028E1D06B7BDB064B
:1035900002D12800FFF764FF2800D7E7002E02D1F0
:1035A00062B6BFF36F8F70BDAC090020E16400000C
:1035B0000E6500000D5D0000236500007C09002001
:1035C000A00900203B65000052650000F5090020BD
:1035D0000D2210B582560400437B002A06DA7F22B2
:1035E0001340437321000548FFF718FF044B986808
:1035F000001B43425841FFF7C3FC10BD9409002053
:103600007C09002070B504000D00FFF7E1FF0223E4
:10361000627B13436373002D2AD0164BA5609C4236
:103620000AD1154C15491648BC23220001F0B1FD02
:10363000BC21200001F0A9FD2B689D4209D16B68D7
:10364000256063601C606C6012E06A689342F6D08B
:103650001B68002BF3D00E220E21A25659568A4227
:10366000F3D09142F1DD5A682360626014605C60BF
:1036700070BDC0466807002091680000766A0000AF
:103680000D5D000070B51D0016000400FFF7BAFFC5
:103690002B00721C01D1013306D0200032002B0018
:1036A0000249183000F0B4FD70BDC046A7550000B7
:1036B000F7B52E4F2E4B01922E4CBA6805000E0026
:1036C0001A60A04209D12C4C2C4922002C482D4BC9
:1036D00001F05FFD2B49200014E0EFF3108372B678
:1036E0002000FFF71FFA00280ED1274D94232A004F
:1036F0002649234801F04DFD2100254801F049FDF0
:103700009421280001F041FD2000FFF729FA089AD2
:10371000099BB8680199FFF7B5FF2800FFF712FA77
:1037200000280CD1184CE22322001A49144801F059
:1037300030FD2900184801F02CFDE221CBE72000E4
:10374000FFF700FA00280CD10F4DE2232A0011499F
:103750000B4801F01EFD21000F4801F01AFDE22187
:10376000CFE73000FDF730FCFEBDC0467C090020ED
:10377000A0090020AC09002091680000246B000023
:103780000D5D000052030000E16400000E650000C2
:10379000236500003B65000052650000F0B50400A1
:1037A0000E0085B0EFF3108372B63E4F03933800DE
:1037B000FFF7B8F9031E01900ED13B4C3B492200A4
:1037C0003B48943301F0E5FC39003A4801F0E1FC54
:1037D0009421200001F0D9FC3800FFF7C1F9637B88
:1037E00076B2DA061DD1A569002D1AD17F221340C9
:1037F0006373314B210018000293FFF70FFE802303
:10380000627B5B42134363732C4BA6739C421DD1B6
:103810002B4C2C49BC232200254801F0BAFCBC21CA
:10382000D7E70023A67301933800FFF78BF9002830
:103830002ED11D4CC323220023491D4801F0A9FCB1
:103840003900224801F0A5FCC321C2E7204B0299B0
:103850009A698A4200D01500DA69002D05D10299D3
:10386000626021601460DC610AE00E2169568E42BC
:103870000AD0B14208DD6B68256063601C606C6033
:103880000120FFF77DFBCFE7AA42E8D02D68E4E7EF
:10389000039B002B02D162B6BFF36F8F019805B076
:1038A000F0BDC046AC090020E16400000E650000D8
:1038B0000D5D0000236500009409002068070020CA
:1038C00091680000766A00003B65000052650000C8
:1038D0007C090020F8B50400183000F057FDEFF324
:1038E000108772B6254D2800FFF71CF900280ED16D
:1038F000234C942322002349234801F04AFC290049
:10390000224801F046FC9421200001F03EFC2800F2
:10391000FFF726F90D22A256637B002A06DA7F22E2
:10392000134021001A486373FFF778FD1023194EE6
:10393000627BB0681343001B637343425841FFF737
:103940001FFB2800FFF7FEF800280CD10C4CC32306
:10395000220011490C4801F01CFC29000F4801F01D
:1039600018FCC321D0E7002F02D162B6BFF36F8FDE
:10397000B368A34201D101F00FFEF8BDAC090020ED
:10398000E16400000E6500000D5D0000236500008D
:10399000940900207C0900203B650000526500006E
:1039A00010B50400806800280AD10A4C0A490B4867
:1039B00022000B4B01F0EDFB2000094901F0E5FB73
:1039C0002100FFF72BFD0222637B934363730023E7
:1039D000A36010BD916800005B6B00000D5D0000EE
:1039E000C5020000F8B504000F00EFF3108672B6B0
:1039F000214D2800FFF796F800280ED11F4C942384
:103A000022001F491F4801F0C4FB29001E4801F095
:103A1000C0FB9421200001F0B8FB2800FFF7A0F8BC
:103A20002823627B1A420FD1A368002B02D020000A
:103A3000FFF7B6FF0422637B002F00D014229343CC
:103A400020006373FFF7D6FA2800FFF77BF8002801
:103A50000CD10A4CC32322000C490A4801F099FBFF
:103A600029000B4801F095FBC321D3E7002E02D1BA
:103A700062B6BFF36F8FF8BDAC090020E1640000AF
:103A80000E6500000D5D0000236500003B65000031
:103A900052650000F8B50600EFF3108772B61F4DAF
:103AA0002800FFF73FF800280ED11D4C9423220078
:103AB0001C491D4801F06DFB29001C4801F069FB01
:103AC0009421200001F061FB2800FFF749F83468D9
:103AD000A6421AD0002C06D02000FFF761FF20007C
:103AE000183000F053FC2800FFF72CF800280ED106
:103AF0000B4CC32322000E490B4801F04AFB29005E
:103B00000C4801F046FBC321DBE70024EBE7002F64
:103B100002D162B6BFF36F8F2000F8BDAC09002060
:103B2000E16400000E6500000D5D000023650000EB
:103B30003B65000052650000024B034A9A61DA615E
:103B40007047C0467C09002094090020F7B5EFF3C8
:103B50000587002F0CD03D4C3D4922003D483E4B8F
:103B600001F017FB3D4801F014FB3B49200016E033
:103B7000EFF3108372B63A4C01932000FEF7D2FFA8
:103B800000280ED1374D94232A003749314801F0DF
:103B900000FB2100354801F0FCFA9421280001F0D7
:103BA000F4FA2000FEF7DCFF7F22314D314EA96888
:103BB00030004B7B13404B73FFF730FC8022AB6827
:103BC0005242597B0A435A732B4A934208D11F4CE5
:103BD0002A49BC2322001F4801F0DBFABC21C5E7BB
:103BE000AA69B24200D13A00E969002A04D11E60F4
:103BF00059600B60EB610CE00E200E271856D7576A
:103C0000B8421BD0874219DD51681A6059600B60B9
:103C100053600120FFF7B4F92000FEF793FF00285E
:103C200010D1104DE2232A0015490A4801F0B1FADB
:103C30002100144801F0ADFAE221AFE78A42D6D064
:103C40001268D2E70198FDF7BFF9F7BD916800004F
:103C5000866700000D5D000071050000736A0000BA
:103C6000AC090020E16400000E650000236500003F
:103C70007C0900209409002068070020766A000073
:103C80003B65000052650000F7B504000D00EFF33E
:103C90000583002B0DD0424C424922004248434B41
:103CA00001F077FA424801F074FA4049200001F02F
:103CB0006CFA03000B4303D1FFF748FF00206EE0CE
:103CC0004B1C1EDB4B1C01D1831C1AD301F071FC71
:103CD00023180093EFF3108372B6364E0193300031
:103CE000FEF720FF002810D1334C942322003349E3
:103CF0002D4801F04EFA3100314801F04AFA942182
:103D0000D4E702235B421B1BE3E73000FEF728FFEA
:103D10002C4F2D4BB8681860FFF75AFC2200102476
:103D2000B8682B001830294900F072FABA683000E0
:103D3000537B23435373FEF705FF00280CD11E4C21
:103D4000E22322002249184801F023FA31002148D9
:103D500001F01FFAE221A9E70198FDF735F9BB68E8
:103D60005B7B1D00254023420BD00D4C1A492200DD
:103D70000D481A4B01F00DFA0D4801F00AFA1749E7
:103D800094E701F016FC2F0006002B00009A921B0E
:103D9000BB411000002B02DC90D1002A8ED0FEBD6A
:103DA00091680000866700000D5D00008D05000031
:103DB000736A0000AC090020E16400000E65000099
:103DC000236500007C090020A0090020A755000001
:103DD0003B65000052650000726B0000A905000001
:103DE00010B502000C000B00EFF3058100290FD085
:103DF000B723114C114922001148DB0001F0C9F929
:103E0000104801F0C6F9B7212000C90001F0BDF942
:103E1000013207D1013305D10B4B9868FFF75AFDEA
:103E2000200010BD2100FFF72FFF0A220023C11739
:103E3000FCF714FAF5E7C0469168000086670000B9
:103E40000D5D0000736A00007C090020014B98683A
:103E50007047C0467C090020F8B50400EFF31087D6
:103E600072B6584D2800FEF75DFE00280ED1564C64
:103E7000942322005549564801F08BF929005548F2
:103E800001F087F99421200001F07FF92800FEF766
:103E900067FE237BDB0724D52800FEF753FE0028AE
:103EA0000CD1494CC32322004B49494801F071F918
:103EB00029004A4801F06DF9C321E4E7002F02D13F
:103EC00062B6BFF36F8F464D46492A004048464BC5
:103ED00001F05FF92100454801F05BF928004249F3
:103EE000D2E70823627B1A420AD02800FEF72AFE96
:103EF0000028D6D0002F02D162B6BFF36F8FF8BD75
:103F00002021100088430100194348B200282FDB0C
:103F10006173A368002B02D02000FFF741FD200051
:103F2000183000F033FA2300A66D58339E4201D0BA
:103F3000002E26D10120FFF723F82D4B9B68A342CA
:103F4000D3D1EFF30583002BCFD12800FEF7FAFD84
:103F50001F4E002824D11C4CE223220030001E49B1
:103F600001F017F929001D4801F013F9E2218AE751
:103F70005F210A40134321001E486373FFF74EFA86
:103F8000C7E73000FFF70CFD3000183000F0FEF9F5
:103F9000330000228C3330001A60FFF72BF8C2E7A1
:103FA0003800FDF711F8E0230D4C0E4922003000D7
:103FB000DB0001F0EEF8104801F0EBF8E021C90059
:103FC00061E7C046AC090020E16400000E65000016
:103FD0000D5D0000236500003B6500005265000098
:103FE0009168000031680000CA060000B26B000052
:103FF0007C09002094090020D16B0000F0B585B049
:10400000040000920193EFF3108672B6424D28002F
:10401000FEF788FD00280ED1404C94232200404931
:10402000404801F0B6F829003F4801F0B2F8942169
:10403000200001F0AAF82800FEF792FD637B1B0721
:104040004CD4009B019A0293019B0393009B134362
:1040500057D0364FB868A04256D00300A2685833F4
:104060009A4251D0EFF30583002B0DD0E423304C5E
:10407000304922002B48DB0001F08BF82E4801F07C
:1040800088F8E421C900D3E721005831FFF7BAFAD4
:10409000029B013302D1039B013306D0B868274944
:1040A000009A019B183000F0B3F82800FEF74AFD93
:1040B00000280CD1194CE22322002149194801F0B3
:1040C00068F829001F4801F064F8E221B0E73000E9
:1040D000FCF77AFF0400200005B0F0BD00242800A2
:1040E000FEF730FD002811D10C4CC32322001449E7
:1040F0000C4801F04EF82900124801F04AF8C3219B
:1041000096E710246442EAE72D24FBE7002EE2D173
:1041100062B6BFF36F8FDEE7AC090020E1640000F8
:104120000E6500000D5D0000236500007C09002085
:104130009168000086670000F36B0000A75500003F
:104140003B6500005265000010B50648064A074965
:10415000121A01F0FEF9064A0649074801F0F9F97A
:1041600010BDC04600000020D8060020906C000062
:1041700000000000906C000000000020002010B53E
:10418000034B1B68834201D1FEF798F910BDC0466E
:10419000B009002070B50E4B1E689E4203D1FFF798
:1041A000EDFF0C4870BDFFF7E9FF002EF9D0326932
:1041B00073690400C517121BAB41002BF1DC03D15E
:1041C000802109068A42ECD2D843C0171040E9E7A3
:1041D000A0060020FFFFFF7F30B500280ED00B4B5C
:1041E0005B6898420AD00168002907D00A694B69C8
:1041F0000469456912196B410A614B6103684268A1
:1042000013605A6000230360436030BDA0060020A5
:10421000F7B5040016001F00531C02D17B1C00D10F
:104220009AE02568002D0DD04C4C4D495E232200AC
:104230004C4800F0AEFF4C4800F0ABFF5E21200080
:1042400000F0A3FFA160EFF3108372B60193474B18
:1042500018000093FEF766FC00280CD1444C942310
:10426000220044493F4800F094FF0099424800F082
:1042700090FF9421E3E70098FEF772FC002F23DA09
:104280007B1C01D1B31C1FD83C4B18685968022213
:104290005242D317121A8B41921BBB41002B04DCF4
:1042A00001D1002A01D101220023354F226163612F
:1042B0003B68BB4200D01D007E68002D0FD12760F7
:1042C000666034607C601CE0FFF758FF0122002329
:1042D00092197B410600C71792197B41E5E72869CF
:1042E000696922696369994202DC27D1904225D924
:1042F000801A99416B6828616961636025601C6060
:104300006C601F4A1368934206D09C4204D1FFF7A9
:1043100041FF0021FEF720F80098FEF713FC00286B
:1043200014D1134CC323220016490E4800F031FF6C
:104330000099154800F02DFFC32180E7121A8B4128
:1043400022616361B542BAD02D68B6E7019B002BAC
:1043500002D162B6BFF36F8FF7BDC046086C000094
:104360002C6C00000D5D0000736A0000B409002091
:10437000E16400000E65000023650000A008002035
:10438000A00600203B6500005265000070B50500E6
:10439000EFF3108672B61D4C2000FEF7C3FB002819
:1043A0000ED11B4D94232A001A491B4800F0F1FE40
:1043B00021001A4800F0EDFE9421280000F0E5FEEF
:1043C0002000FEF7CDFB2B68002B15D02800FFF74F
:1043D00003FF00252000FEF7B5FB00280FD10C4D90
:1043E000C3232A000E490C4800F0D3FE21000D48DB
:1043F00000F0CFFEC321E0E716256D42EAE7002E6C
:1044000002D162B6BFF36F8F280070BDB4090020DF
:10441000E16400000E6500000D5D000023650000F2
:104420003B65000052650000F0B5040087B0EFF373
:10443000108372B64D4D01932800FEF773FB0028E0
:104440000ED14B4C942322004A494B4800F0A1FE68
:1044500046494A4800F09DFE9421200000F095FE58
:104460002800FEF77DFB464B1C60464B1C689C42B7
:1044700000D10024444B049318685968404B1F68CE
:104480000593002C54D062692669FB179A4202DC1E
:104490000AD1BE4208D91E00226963693D00521B41
:1044A000B3412261636143E0F31702960393029ADA
:1044B000039B8018594100220023334D2261636120
:1044C000286069602000FFF787FE284F3800FEF75C
:1044D00039FB00280CD1264CC32322002B49264847
:1044E00000F057FE21492A4800F053FEC321B4E7EB
:1044F000019B002B02D162B6BFF36F8F2000A3682F
:104500009847EFF3108372B638000193FEF70AFB69
:10451000002896D03800FEF723FB194B1F68BF1BFD
:104520001F60184B1C689C42A4D1174B186859682F
:104530003A00FB1712184B41002404990A604B60A3
:10454000059B1C60FFF726FE2100FDF705FF0748CD
:10455000FEF7F8FAA042BED0019BA34202D162B698
:10456000BFF36F8FFEF7D0FF07B0F0BDB409002096
:10457000E16400000E6500000D5D00002365000091
:10458000B0090020A0060020A00800203B65000024
:1045900052650000F8B5EFF3108572B61D4C20008F
:1045A000FEF7C0FA00280ED11B4D94232A001B49A8
:1045B0001B4800F0EEFD21001A4800F0EAFD9421AE
:1045C000280000F0E2FD2000FEF7CAFAFFF7D6FD52
:1045D00002001549C31720000E684F68B6185F41E6
:1045E000FEF7B0FA00280CD10B4DC3232A000F4967
:1045F0000B4800F0CEFD21000D4800F0CAFDC3219C
:10460000DEE7002D02D162B6BFF36F8F30003900B4
:10461000F8BDC046B4090020E16400000E6500004A
:104620000D5D000023650000A00800203B65000030
:104630005265000010B5024800F07CFD10BDC04678
:104640004C6C000010B5034B0100186800F00EF828
:1046500010BDC046B006002010B5034B010018681D
:1046600000F02AFC10BDC046B0060020F0B545465B
:10467000DE4657464E46E0B50D0083B00B35009040
:10468000162D27D8102900D9C8E000F02FFB1025DF
:1046900018230221C54FFB181A005C68083A94429F
:1046A00000D123E1032263689343E268A168CA60F2
:1046B00091600121E3185A6800980A435A6000F09B
:1046C0001DFB2000083003B0F0BCBB46B246A94633
:1046D000A046F0BD07239D4300D59FE0A94200D925
:1046E0009CE0009800F002FBFC235B009D4200D29E
:1046F00057E1690A00D196E0042900D922E1382364
:104700009C46A9098C443931C800A84F3818446820
:104710000838A0420CD0032604E0002AC5DAE46879
:10472000A04205D06368B3435A1B0F2AF5DD6146EA
:104730003A003C690832944200D1C6E00320636825
:104740008343581B0F2800DD3EE13A617A6100285F
:10475000AFDA7A68904680229200934200D3CBE091
:10476000DA08580901238340404618438046D300A5
:10477000DB199A687860E360A2609C60D4600120D5
:104780008B109840404554D84346034206D103233A
:1047900099434346400004310342FAD0032398462C
:1047A000CB009946B944CC468A466346DB680BE0A9
:1047B00044465A68A243561B1C00DB680F2E00DDDE
:1047C000CCE0002E00DBDEE09C45F1D108239B46C7
:1047D000073BDC449B46DA4453469B07E5D1032262
:1047E00009E008235B429C46E1444B469B68013943
:1047F0004B4500D0D6E10A42F3D17B6883437B600E
:104800004000984215D8002804D112E004229446B2
:104810004000E2440342F9D05146C1E70C23009A1C
:10482000002013604FE780203F2340219C468000FA
:104830006BE70322BC68636893439946AB4202D39B
:104840005B1B0F2B44DC23004B44594A0193594B0B
:1048500093461B681268EB18013200D132E1564AC8
:10486000944663441B0B1B031E003100009800F0AC
:104870004DFA03008046013300D1BFE0019B834223
:1048800000D9B9E0B4464D4B19689A4661441960A5
:10489000019B0A00834200D0CBE043461B0500D0B9
:1048A000C7E0BB683200984601234A441A43434696
:1048B0005A60434B1868884200D21960414B18680F
:1048C000884200D2196044469AE07B68984656E7D1
:1048D0000122290013431143651961600098BD60EE
:1048E0006B6000F00BFA20000830ECE6DC68023167
:1048F000A34200D11CE7D5E65A0A042A76D9142A25
:1049000000D9F9E010005C325B30D2000826764214
:10491000B446BA189444624692680B36B146944540
:1049200003D1D2E09268944504D04E465068B0431B
:104930009842F7D8D3689C466346A260E3609C60C7
:10494000D4601CE7142968D9542900D9DCE06E230F
:104950009C46290B8C446F31C800D6E601206119B2
:1049600005436560A5680837EB6030439D60B9601A
:10497000F9604860CF6000988F60A65000F0BEF9E3
:10498000200008309FE60120A218516801435160C1
:10499000A2680098D3609A6000F0B0F92000083057
:1049A00091E62B00E908083374E6C04600000020B9
:1049B000A8060020E80900200F100000B809002018
:1049C000E4090020E00900200126611935436560F3
:1049D00039617961CA608A60320002434A60E050FE
:1049E000009800F08BF9200008306CE69A0910005E
:1049F00039323830D20089E7BC4214D0BC686268D2
:104A000003239A43531BAA4202D30F2B00DD5FE717
:104A1000009800F073F9002055E65B239C468C4417
:104A20005C31C80071E6604BB4469A461A6862442D
:104A30001A605B461B68013371D0434601995B1ACB
:104A40009B18524613600723424641461A40019282
:104A5000194242D08B1A0821884631009844534BA2
:104A600041449B1A5B1A1B051B0D0E000098190090
:104A70009B4600F04BF9431C6CD04346C01A030020
:104A80005B441E00534619680120320059441960E6
:104A900043460243BB605A60BC4200D109E74B4623
:104AA0000F2B40D907220C3B93436268024005203C
:104AB0001A436260E218506090600F2B54D843464E
:104AC0005A68F6E610331E00CFE6012380108340BB
:104AD00040461843804678602EE7330043445B42EB
:104AE0001B051B0D190000989B4600F00FF9431C95
:104AF000C3D100239B46C5E7542A17D81A0B1000D0
:104B00006F326E30D20001E7AA235B00994217D8BA
:104B1000DD3B9C46E90B8C447831C800F5E55B46EB
:104B200042461A608FE74346586071E7AA2040006A
:104B3000824224D8DA0B100078327730D200E5E6D2
:104B40001B4B994224D87C239C46A90C8C447D3174
:104B5000C800DAE5B4464246019B083B63449B1A11
:104B60001E0000239B468DE721000098083100F0CD
:104B7000A3F953461968BB6898465A6899E60C48E9
:104B800082420BD89A0C10007D327C30D200BDE6F8
:104B9000FE207E237F219C468000B6E5FE227E20FB
:104BA0009200B3E67B682BE6B809002008100000ED
:104BB00054050000F0B505000F2A33D90324030083
:104BC00026000B431E401C4237D11500103D2D0915
:104BD00003000C00AC462F013F1865685D60A568B6
:104BE0009D60E568DD60256810341D601D00103390
:104BF000BD42F2D165460F230C2401352D01491920
:104C00001340451914421AD08C59AC5104369C1BE0
:104C1000032CF9D8043B9B0801339B00ED18C918FD
:104C200003231A40561E002A06D00023CC5C1A002B
:104C3000EC5401339642F9D1F0BD561EF5E71A0047
:104C4000F0E7C046F0B50500830749D0541E002A9E
:104C500045D003000326CAB202E00135013C3ED331
:104C600001332A703342F8D1032C30D9FF220A4095
:104C70001502AD182A04AD180F2C34D92700103FA7
:104C80003F093E01B4461E001A0010366644156006
:104C900055609560D56010329642F8D101373F01DA
:104CA000DB190F270C22274022403C00002A0ED09F
:104CB0003E1FB608B400A4461A001C1D644420C25E
:104CC000A242FCD103240136B6009B193C40002CC3
:104CD00005D0C9B21C19197001339C42FBD1F0BD3B
:104CE00003001400C0E72700E2E7C04610B5024801
:104CF000FCF728FB10BDC046C406002010B50248D2
:104D0000FCF73CFB10BDC046C4060020002370B574
:104D1000064C050008002360FCF7FEFA431C00D097
:104D200070BD2368002BFBD02B60F9E7EC09002055
:104D300010B583070AD00300032102E001330B42C0
:104D400005D01A78002AF9D1181A10BD0300196885
:104D50000C4A0D4C8A188A4322420FD15968094ADD
:104D600004338A188A43224208D15968054A043319
:104D70008A188A432242F1D000E001331A78002ACF
:104D8000FBD1E1E7FFFEFEFE8080808003000B4345
:104D900070B506009B070ED1032A0CD9114D04E013
:104DA000043A043110C6032A05D90C680E4BE318E7
:104DB000A3432B42F4D03300002406E00D5D013AFA
:104DC000355501330134002D02D0002AF6D170BDD3
:104DD00000219C18002AFAD019700133A342FBD19C
:104DE000F5E7C04680808080FFFEFEFE10B5030020
:104DF0004418002903D109E001339C4204D01A78F9
:104E0000002AF9D1181A10BD201AFCE70020FAE791
:104E1000F0B5C64600B588460500FFF767FF224F8C
:104E2000BB685E6803239E43204BF4184346E41A94
:104E30008023240B013C24035B019C4207DB0021FF
:104E40002800FFF763FFBB689B19984206D0280033
:104E5000FFF754FF002080BCB846F0BD2800614237
:104E6000FFF754FF01300DD00122361BBB681643FB
:104E70000F4A5E60136828001B1B1360FFF73EFF9C
:104E80000120E8E700212800FFF740FFBA68831AF5
:104E90000F2BDCDD074C06492468001B086001214C
:104EA0000B435360D3E7C04600000020EF0F000023
:104EB000B8090020A8060020F8B5CE4647460500F0
:104EC0000C0080B5002957D0FFF710FF0123210007
:104ED0009C46083948686246030003249343CF1870
:104EE0007A68654EA243B468BC4200D170E0BC1839
:104EF000A14664467A60044221D10868091A1B1849
:104F0000886880464846406820403400083481461E
:104F1000A04551D04046CC68C460A06048460028F7
:104F200011D19B185548BA68824200D17FE0F868D9
:104F3000D060826001221A434A60CB5007E04846A5
:104F400040682042EDD062461A434A603B608022AE
:104F50009200934214D2DA08580901238340706802
:104F600003437360D3009B199A68CB608A60996091
:104F7000D1602800FFF7C2FEC0BCB946B046F8BDFC
:104F80005C0A042C3DD89C09200039343830E400F8
:104F900034192268083C0327944203D140E0926808
:104FA000944203D05068B8439842F8D8D468CC6093
:104FB0008A60A160D160DCE7002858D1B868D218B7
:104FC000FB68C3609860634613434B608A50D0E728
:104FD0009A186346034206D10B68C91A8868D2182A
:104FE000CB68C3609860012313434B60244BB160CE
:104FF0001B689342BDD8234B28001968FFF708FFB0
:10500000B7E7142C07D9542C1AD81C0B20006F3486
:105010006E30E400BCE720005C345B30E400B7E7AE
:10502000012380108340706803437360BFE7D16041
:105030009160CA608A6001221A434A60CB5098E7A7
:10504000AA225200944205D8DC0B20007834773035
:10505000E4009DE70C4A944205D89C0C20007D3466
:105060007C30E40094E7FE247E20A40090E76246B2
:105070001A434A603B607CE70000002008000020E3
:10508000AC060020E809002054050000704710B568
:10509000042000F030F80523036010BD10B500288F
:1050A00001D000F02CF810BD1FB501900291FFF760
:1050B0003FFE039000210A20FEF792FE01A9012085
:1050C00000F0E1F805B000BD07B5019001A902208C
:1050D00000F0D9F80EBD1FB501900291052001A97D
:1050E000039200F0D0F805B000BD10B5FBF722FA2E
:1050F000FBF712FA10BD10B5FFF7A4FA10BD10B5FA
:10510000FFF7AAFA10BD002070478A680B6830B517
:10511000551C002B02D04C68944201DC8D6030BDE0
:10512000013C9B188D60944202D100221A70F6E770
:105130001870F4E70FB407B504A901C90191FBF792
:1051400017FA03B008BC04B0184710B504000800F3
:1051500011001A00A047FEF779FEFCF797F8F7B5A3
:10516000070015001E0014000191A64206D8002E6B
:1051700001D0601B08E02378002BFAD02078019939
:10518000B84701340028F0DAFEBD042062B602DF21
:1051900070470FB407B504A901C90191FBF7E8F9FD
:1051A00003B008BC04B01847704770B50F254B0812
:1051B000C3182A403033CC070DD51C7816012200C5
:1051C0002A4032431A7001234018403002781343BA
:1051D0000370002070BD1C78AC432243F2E703004B
:1051E000002170B500685C689A6804194034217029
:1051F0000D1C01310E005C68A64046600E005C6824
:10520000A6404661540605D512035968120FFFF7F0
:10521000CCFF70BD940705D00A4202D05C68A14063
:10522000816104250124D1082140A1402943D506EC
:1052300002D55D68AC4084605B689206D20F920133
:10524000C018114340300170E3E70FB407B504A95B
:1052500001C90191FBF78CF903B008BC04B01847F1
:1052600010B501000068FBF71BFE10BD10B5002152
:105270000120FBF715FE10BD10B5FBF78DFEFBF707
:1052800041FF10BD7047ABBE7047012040427047E0
:1052900010B50020FCF722FBFCF7D0FA10BD10B5CA
:1052A0004A690123002A01D090470300180010BD6D
:1052B0000120704710B5FCF77BFA10BD7047F0B5C0
:1052C000436806695B68900702D586204042F0BDBE
:1052D0000120140C0440844030278446251C1740CC
:1052E000900319D5002FF0D16046884054030FD5A4
:1052F000586198600124B0688C40D20519D5AA077E
:1053000017D520435B184033B06000201D70DEE7E6
:105310001403EED59861ECE7604688405860002F92
:10532000E8D004252543D40601D59861E2E7586109
:10533000E0E7A043E6E7436800205B681B6A0B6078
:10534000704743685B6818694240114041401961E9
:1053500000207047436800205B689961704743688C
:1053600000205B6859617047436800205B68D96121
:1053700070470020704710B54368187AFCF7FEFCB0
:1053800010BD30B50368136005790468ED00641939
:10539000A34202D30220404230BD5C798C4201D04E
:1053A0000833F0E70020F7E70723C2691A42FCD16F
:1053B000704743681B681A7E520703D500201B8D77
:1053C0000B70704710204042FBE743681B681A7E51
:1053D000D207FCD51985704710B5436802221868BA
:1053E0000123448B418BA4081C40114200D014437C
:1053F000428B1A4201D004231C430723428B1343E0
:105400004383FFF7D1FF200010BD10B502699368F8
:10541000002B01D0D168984710BD10B543681C68B7
:10542000237EDB07D80F002B05D00020824202DD4F
:105430000B780130238510BD032243681B689A75E1
:105440007047032243681B681A7570474368002041
:105450001B681A7ED20702D5987DC007C00F70471F
:10546000436800201B681A7E920702D5987D80074A
:10547000C00F7047042243681B689A757047042266
:1054800043681B681A75704743681B68187E40079D
:10549000C00F704710B5436800201B681C7E64076E
:1054A00005D51B8DDBB2824202DD0B70013010BDD1
:1054B00016204042FBE743681B689A7D187E104027
:1054C000431E984170470822436801201B681A76E2
:1054D000704703699960DA607047002210B51100C7
:1054E0000920FBF715FD0920FBF706FD10BD002282
:1054F00010B511000B20FBF70BFD0B20FBF7FCFC9C
:1055000010BD002210B511000D20FBF701FD0D208C
:10551000FBF7F2FC10BD030010B508000822196962
:10552000FFF748FB002010BD002809D00123C26806
:1055300000205178194202D0107842425041184060
:105540007047EFF3108372B6FEE710B5FFF77AFBF2
:1055500010BD10B5FFF72EFB10BD6030704710B5C1
:10556000FDF722FE10BD0E2210B5825600238A429E
:1055700002D0FEF713F90300180010BD10B5002883
:1055800005D1EFF30580002802D1FBF71DFD10BD0A
:1055900062B6BFF36F8FFAE710B5EFF3108072B603
:1055A000FFF7ECFF10BD10B501211838FEF71AFA0D
:0C55B00010BD10B5FEF7EEFF10BD0000AE
:0855BC00F4ADFF7F01000000C7
:1055C400A90D000000000000091B00001C5600008B
:1055D4007353000034560000735300004C5600000F
:1055E40073530000645600009D2000007C560000A8
:1055F4009D200000945600009D200000AC56000041
:10560400C91D000000000000D922000000000000B5
:08561400C512000000000000B7
:10561C008D6200000000000000000000B5060020B4
:10562C00D4080020E8570000836300006C58000089
:10563C0090580000B7060020FC080020E25700003C
:10564C00916300007858000090580000B9060020C3
:10565C0010090020DC5700009F63000084580000F4
:10566C0090580000BB06002024090020D6570000EB
:10567C00B1640000C058000074590000BD06002041
:10568C0038090020D0570000C1640000FC5800000D
:10569C0074590000BF06002048090020CA570000BA
:1056AC00D16400003859000074590000C106002074
:0856BC0058090020C45700004A
:1056C400000000006D520000000000006D52000058
:1056D400000000006D5200001C560000C11A0000BA
:1056E400000000006D520000000000006D52000038
:1056F400000000006D520000000000006D52000028
:10570400000000006D520000AC5600000B54000075
:10571400000000006D520000945600000B5400007D
:10572400000000006D5200007C5600000B54000085
:10573400000000006D520000000000006D520000E7
:10574400000000006D520000000000006D520000D7
:10575400000000006D520000000000006D520000C7
:10576400000000006D520000000000006D520000B7
:10577400000000006D520000000000006D520000A7
:10578400000000006D520000000000006D52000097
:10579400000000006D520000000000006D52000087
:1057A400000000006D520000000000006D52000077
:1057B400000000006D520000000000006D52000067
:1057C40000800080FF7F00800080FF7F00800080D9
:1057D400FF7F00800080FF7F00800080FF7F0080CB
:0A57E4000080FF7F00800080FF7F3F
:0257EE00FFFFBB
:1057F000185B00008F500000000000000000000057
:105800009D50000000000000BC080020185B000054
:10581000205B0000E904000000000000A808002050
:0C5820000000000000000000000000007C
:10582C00875B000003000000AF660000030000006F
:10583C005362000059620000606200006562000063
:10584C006B620000746200007E62000083620000E4
:10585C0088620000B55200009F520000B152000057
:10586C00FFFFFFFF0001004102000000FFFFFFFFF0
:10587C008000004101000000FFFFFFFF000000411D
:10588C0000000000BF5200003753000043530000DB
:10589C00555300005F53000069530000CD1E0000FB
:1058AC001D1E0000775300000000004180000041E5
:1058BC00000100410014004200C201000000310050
:1058CC00000000001C080040200000001700000031
:1058DC0003550000E4580000EC58000001000000E3
:1058EC00F4580000020000000000B1320000A132A8
:1058FC00000C004200C2010000001000000000007B
:10590C001C0800400800000015000000EF540000C7
:10591C0020590000285900000100000030590000F7
:10592C00020000000000D0220000C022000400424F
:10593C008025000000001000000000001C08004042
:10594C000200000013000000DB5400005C59000052
:10595C0064590000010000006C59000002000000B6
:10596C000000912300008123B3530000CB530000AF
:10597C00D953000081210000175500001B54000072
:10598C009554000039540000435400004D5400005D
:10599C00755400007F5400006154000089540000CD
:1059AC000000000000000000B7540000C7540000C5
:1059BC00D3540000F5FFFFFF5B6600006966000032
:1059CC007D6600008C66000098660000C4550000DF
:1059DC00C45500000C560000145600001C56000064
:1059EC001C560000002020202020202020202828C9
:1059FC002828282020202020202020202020202083
:105A0C0020202020208810101010101010101010C2
:105A1C0010101010100404040404040404040410F2
:105A2C001010101010104141414141410101010180
:105A3C00010101010101010101010101010101014A
:105A4C001010101010104242424242420202020256
:105A5C00020202020202020202020202020202021A
:105A6C0010101010200000000000000000000000CA
:105A7C00000000000000000000000000000000001A
:105A8C00000000000000000000000000000000000A
:105A9C0000000000000000000000000000000000FA
:105AAC0000000000000000000000000000000000EA
:105ABC0000000000000000000000000000000000DA
